{
  "_format": "hh-sol-artifact-1",
  "contractName": "xALPACAPriceSetter",
  "sourceName": "contracts/xALPACAPriceSetter.sol",
  "abi": [
    {
      "inputs": [],
      "name": "xALPACAPriceSetter_Unauthorize",
      "type": "error"
    },
    {
      "anonymous": false,
      "inputs": [
        {
          "indexed": false,
          "internalType": "uint8",
          "name": "version",
          "type": "uint8"
        }
      ],
      "name": "Initialized",
      "type": "event"
    },
    {
      "anonymous": false,
      "inputs": [
        {
          "indexed": true,
          "internalType": "address",
          "name": "_caller",
          "type": "address"
        },
        {
          "indexed": true,
          "internalType": "address",
          "name": "_priceSetter",
          "type": "address"
        }
      ],
      "name": "LogSetPriceSetter",
      "type": "event"
    },
    {
      "anonymous": false,
      "inputs": [
        {
          "indexed": true,
          "internalType": "address",
          "name": "_caller",
          "type": "address"
        },
        {
          "indexed": false,
          "internalType": "uint256",
          "name": "_xALPACAValue",
          "type": "uint256"
        }
      ],
      "name": "LogSetValueFromTWAP",
      "type": "event"
    },
    {
      "anonymous": false,
      "inputs": [
        {
          "indexed": true,
          "internalType": "address",
          "name": "previousOwner",
          "type": "address"
        },
        {
          "indexed": true,
          "internalType": "address",
          "name": "newOwner",
          "type": "address"
        }
      ],
      "name": "OwnershipTransferred",
      "type": "event"
    },
    {
      "inputs": [],
      "name": "TWAPOracle",
      "outputs": [
        {
          "internalType": "contract ITWAPOracle",
          "name": "",
          "type": "address"
        }
      ],
      "stateMutability": "view",
      "type": "function"
    },
    {
      "inputs": [],
      "name": "alpaca",
      "outputs": [
        {
          "internalType": "address",
          "name": "",
          "type": "address"
        }
      ],
      "stateMutability": "view",
      "type": "function"
    },
    {
      "inputs": [
        {
          "internalType": "contract IxALPACACreditor",
          "name": "_xALPACACreditor",
          "type": "address"
        },
        {
          "internalType": "contract ITWAPOracle",
          "name": "_TWAPOracle",
          "type": "address"
        },
        {
          "internalType": "address",
          "name": "_alpaca",
          "type": "address"
        }
      ],
      "name": "initialize",
      "outputs": [],
      "stateMutability": "nonpayable",
      "type": "function"
    },
    {
      "inputs": [],
      "name": "owner",
      "outputs": [
        {
          "internalType": "address",
          "name": "",
          "type": "address"
        }
      ],
      "stateMutability": "view",
      "type": "function"
    },
    {
      "inputs": [],
      "name": "priceSetter",
      "outputs": [
        {
          "internalType": "address",
          "name": "",
          "type": "address"
        }
      ],
      "stateMutability": "view",
      "type": "function"
    },
    {
      "inputs": [],
      "name": "renounceOwnership",
      "outputs": [],
      "stateMutability": "nonpayable",
      "type": "function"
    },
    {
      "inputs": [
        {
          "internalType": "address",
          "name": "_priceSetter",
          "type": "address"
        }
      ],
      "name": "setPriceSetter",
      "outputs": [],
      "stateMutability": "nonpayable",
      "type": "function"
    },
    {
      "inputs": [],
      "name": "setValueFromTWAP",
      "outputs": [],
      "stateMutability": "nonpayable",
      "type": "function"
    },
    {
      "inputs": [
        {
          "internalType": "address",
          "name": "newOwner",
          "type": "address"
        }
      ],
      "name": "transferOwnership",
      "outputs": [],
      "stateMutability": "nonpayable",
      "type": "function"
    },
    {
      "inputs": [],
      "name": "xALPACACreditor",
      "outputs": [
        {
          "internalType": "contract IxALPACACreditor",
          "name": "",
          "type": "address"
        }
      ],
      "stateMutability": "view",
      "type": "function"
    }
  ],
  "bytecode": "0x608060405234801561001057600080fd5b50610881806100206000396000f3fe608060405234801561001057600080fd5b50600436106100be5760003560e01c806394faab2311610076578063cab0d8161161005b578063cab0d81614610159578063d0b373b31461016c578063f2fde38b1461017457600080fd5b806394faab2314610133578063c0c53b8b1461014657600080fd5b806363791e3c116100a757806363791e3c14610105578063715018a61461011a5780638da5cb5b1461012257600080fd5b80632c09bef7146100c357806334d29f05146100f2575b600080fd5b6068546100d6906001600160a01b031681565b6040516001600160a01b03909116815260200160405180910390f35b6065546100d6906001600160a01b031681565b6101186101133660046107ec565b610187565b005b61011861023f565b6033546001600160a01b03166100d6565b6067546100d6906001600160a01b031681565b610118610154366004610810565b6102a5565b6066546100d6906001600160a01b031681565b610118610367565b6101186101823660046107ec565b61049e565b6033546001600160a01b031633146101e65760405162461bcd60e51b815260206004820181905260248201527f4f776e61626c653a2063616c6c6572206973206e6f7420746865206f776e657260448201526064015b60405180910390fd5b6068805473ffffffffffffffffffffffffffffffffffffffff19166001600160a01b03831690811790915560405133907f73ac14f6c6f83ac21ceaedde9a348f537e8dcd3931f90b9cf101f14e534f735c90600090a350565b6033546001600160a01b031633146102995760405162461bcd60e51b815260206004820181905260248201527f4f776e61626c653a2063616c6c6572206973206e6f7420746865206f776e657260448201526064016101dd565b6102a36000610580565b565b60006102b160016105df565b905080156102c9576000805461ff0019166101001790555b6102d16106f5565b606580546001600160a01b0380871673ffffffffffffffffffffffffffffffffffffffff19928316179092556066805486841690831617905560678054928516929091169190911790558015610361576000805461ff0019169055604051600181527f7f26b83ff96e1f2b6a682f133852f6798a09c465da95921460cefb38474024989060200160405180910390a15b50505050565b6068546001600160a01b031633146103925760405163fe77f37f60e01b815260040160405180910390fd5b6066546067546040516341976e0960e01b81526001600160a01b03918216600482015260009291909116906341976e0990602401602060405180830381865afa1580156103e3573d6000803e3d6000fd5b505050506040513d601f19601f82011682018060405250810190610407919061085b565b6065546040516319b28d7560e31b8152600481018390529192506001600160a01b03169063cd946ba890602401600060405180830381600087803b15801561044e57600080fd5b505af1158015610462573d6000803e3d6000fd5b50506040518381523392507f319b98be05fdbfe94f3cf2046d4cb3ab593056698700d2e808692638dc6ca4e6915060200160405180910390a250565b6033546001600160a01b031633146104f85760405162461bcd60e51b815260206004820181905260248201527f4f776e61626c653a2063616c6c6572206973206e6f7420746865206f776e657260448201526064016101dd565b6001600160a01b0381166105745760405162461bcd60e51b815260206004820152602660248201527f4f776e61626c653a206e6577206f776e657220697320746865207a65726f206160448201527f646472657373000000000000000000000000000000000000000000000000000060648201526084016101dd565b61057d81610580565b50565b603380546001600160a01b0383811673ffffffffffffffffffffffffffffffffffffffff19831681179093556040519116919082907f8be0079c531659141344cd1fd0a4f28419497f9722a3daafe3b4186f6b6457e090600090a35050565b60008054610100900460ff161561066d578160ff1660011480156106025750303b155b6106655760405162461bcd60e51b815260206004820152602e60248201527f496e697469616c697a61626c653a20636f6e747261637420697320616c72656160448201526d191e481a5b9a5d1a585b1a5e995960921b60648201526084016101dd565b506000919050565b60005460ff8084169116106106db5760405162461bcd60e51b815260206004820152602e60248201527f496e697469616c697a61626c653a20636f6e747261637420697320616c72656160448201526d191e481a5b9a5d1a585b1a5e995960921b60648201526084016101dd565b506000805460ff191660ff92909216919091179055600190565b600054610100900460ff166107605760405162461bcd60e51b815260206004820152602b60248201527f496e697469616c697a61626c653a20636f6e7472616374206973206e6f74206960448201526a6e697469616c697a696e6760a81b60648201526084016101dd565b6102a3600054610100900460ff166107ce5760405162461bcd60e51b815260206004820152602b60248201527f496e697469616c697a61626c653a20636f6e7472616374206973206e6f74206960448201526a6e697469616c697a696e6760a81b60648201526084016101dd565b6102a333610580565b6001600160a01b038116811461057d57600080fd5b6000602082840312156107fe57600080fd5b8135610809816107d7565b9392505050565b60008060006060848603121561082557600080fd5b8335610830816107d7565b92506020840135610840816107d7565b91506040840135610850816107d7565b809150509250925092565b60006020828403121561086d57600080fd5b505191905056fea164736f6c634300080d000a",
  "linkReferences": {},
  "deployedLinkReferences": {}
}